:020000040800F2
:10000000008001207D100008C50F0008C90F0008FE
:10001000CD0F0008D10F0008D50F00080000000028
:10002000000000000000000000000000D90F0008E0
:10003000DD0F000800000000E10F0008E50F0008D8
:10004000CD100008CD100008CD100008CD1000081C
:10005000CD100008CD100008CD100008CD1000080C
:10006000CD100008CD100008CD100008CD100008FC
:10007000E90F0008F50F0008CD100008CD100008AA
:10008000011000080D100008CD100008CD10000868
:10009000CD100008CD100008CD1000081910000880
:1000A000CD100008CD100008CD100008CD100008BC
:1000B000CD100008CD100008CD100008CD100008AC
:1000C000CD100008CD100008CD1000082110000848
:1000D000CD100008CD1000082D100008CD1000082C
:1000E000CD100008CD100008CD100008CD1000087C
:1000F000CD100008CD100008CD100008CD1000086C
:10010000CD100008CD100008CD100008CD1000085B
:10011000CD100008CD100008CD100008CD1000084B
:10012000CD100008CD100008CD100008CD1000083B
:10013000CD100008CD100008CD100008CD1000082B
:10014000CD100008CD100008CD100008CD1000081B
:10015000CD100008CD100008CD100008CD1000080B
:10016000CD100008CD100008CD100008CD100008FB
:10017000CD100008CD100008CD10000800000000D0
:08018000CD100008CD100008AD
:1001880010B5054C237833B9044B13B10448AFF3C9
:1001980000800123237010BD100200200000000021
:1001A800E8B3010808B5034B1BB103490348AFF393
:1001B800008008BD0000000014020020E8B3010818
:1001C8006FF0030C043904E04FF0040C01EB8201DA
:1001D8005242920000D170472DE9F047C3EA034626
:1001E800C3EA2347B0F800A044888388C5880089FB
:1001F800C5F57045C3EA004E6346C4EA054C34B2FF
:100208003DB24FEA04384FEA053934003D008858BA
:100218001AFB00881AFB10992CFB04882CFB1599F3
:100228004EFB06884EFB179926002F00C0EA0814DB
:10023800C0EA29352804C0EA24408850D218E6D1FB
:10024800BDE8F0876FF0010C023904E05FF0020CA2
:1002580001EB42015242520000D170472DE9F044AF
:100268006746B0F800A044888588C6880089C6F526
:100278007046C4EA064CC5EA004EC3EA03442500AA
:100288001BB21E03885A1AFB00662CFB04664EFB41
:1002980005662500C0EA061420148852D219F1D147
:1002A800BDE8F08453B94AB9002908BF00281CBF2B
:1002B8004FF0FF314FF0FF3000F06EB9ADF1080C90
:1002C8006DE904CE00F006F8DDF804E0DDE902236C
:1002D80004B070472DE9F047089D04468C46002B72
:1002E80040F083808A42174647D9B2FA82F242B177
:1002F800C2F1200024FA00F09140974040EA010C36
:1003080094404FEA1748230CBCFBF8F61FFA87FE07
:1003180008FB16C143EA014306FB0EF1994209D9CD
:10032800FB1806F1FF3080F01981994240F21681DE
:10033800023E3B445B1AA4B2B3FBF8F008FB10334F
:1003480044EA034400FB0EFEA64509D93C1900F116
:10035800FF3380F00581A64540F2028102383C4413
:1003680040EA0640A4EB0E0400261DB1D440002349
:10037800C5E900433146BDE8F08702B9FFDEB2FAAD
:1003880082F2002A50D1CB1B4FEA174E1FFA87F88A
:100398000126B3FBFEFC210C0EFB1C3341EA034192
:1003A80008FB0CF38B4207D979180CF1FF3002D205
:1003B8008B4200F2E9808446C91AA3B2B1FBFEF071
:1003C8000EFB101143EA014408FB00F8A04507D9C9
:1003D8003C1900F1FF3302D2A04500F2D98018463B
:1003E800A4EB080440EA0C40BFE78B4209D9002D72
:1003F80000F0B1800026C5E9000130463146BDE86D
:10040800F087B3FA83F6002E4AD18B4202D3824298
:1004180000F2B880841A61EB030101208C46002D9C
:10042800A8D0C5E9004CA5E7C2F1200320FA03F6DD
:10043800974001FA02F04FEA174ED9403043030CB7
:10044800B1FBFEF61FFA87F80EFB161143EA0143CB
:1004580006FB08F1994204FA02F409D9FB1806F1DF
:10046800FF3C80F08D80994240F28A80023E3B44F6
:100478005B1A81B2B3FBFEF00EFB103341EA034175
:1004880000FB08F38B4207D9791800F1FF3C73D2BF
:100498008B4271D902383944CB1A40EA064678E7CC
:1004A800C6F1200C03FA06F422FA0CF31C4320FAD6
:1004B8000CF701FA06F34FEA144E21FA0CF11F4328
:1004C8003B0CB1FBFEF91FFA84F80EFB191143EA45
:1004D800014109FB08FA8A4502FA06F200FA06F316
:1004E80008D9611809F1FF3048D28A4546D9A9F1DF
:1004F80002092144A1EB0A01BFB2B1FBFEF00EFBD9
:10050800101147EA014700FB08F8B84507D9E71971
:1005180000F1FF312ED2B8452CD90238274440EAE1
:100528000940A7EB0807A0FB02894F45C646494684
:100538001AD317D05DB1B3EB0E0267EB010707FAC8
:100548000CFCF2404CEA0202F740C5E900270026FD
:100558003146BDE8F0872E4628460BE70646E9E611
:100568001846FDE64345E5D2B8EB020E69EB0401F7
:100578000138DFE70846D2E760468DE78146B9E7EC
:10058800664675E730464AE7ACF1020C394413E792
:1005980002383C4424E700BF704700BF034613F805
:1005A800012B002AFBD1181A0138704772B6BFF325
:1005B8004F8FBFF36F8F704762B6BFF34F8FBFF394
:1005C8006F8F70470CB42DE9F041ACB032AB0DF130
:1005D800180853F8042B059306460F464046962103
:1005E80000F0ACFD952806DD42F62E622E23ADF80C
:1005F800AA20ADF8AC3000F033F91C4C1C4A1D4B56
:100608001D49A4FB0054A2FB00524FEA943C9509F3
:10061800A3FB0C42A3FB05435B09A1FB0014042EBA
:100628004FF47A71C3EB0313A5EB830301FB1505A4
:1006380098BF12484FEA521294BF805D3F20C2EB28
:100648000212CDE90050ACEB8202610DCDE90278CF
:100658000B4800F04DFD0B4B1B6898681AF0F8FB2F
:100668002CB0BDE8F04102B0704700BF73B2E74557
:10067800D34D621089888888B17C219548B50108D6
:1006880024B50108AC01002010B50B4C606903F0DB
:100698006BFB606903F0ECFD50B96069642103F0FD
:1006A800DBFD60690549BDE810400A2204F058B92D
:1006B80000F008FBF1E700BF000000200400002064
:1006C800704700BFD0F88030202B70B510D0164C82
:1006D800D4E904300133236103F046FB606903F079
:1006E80011FB60691149BDE870400A2204F038B96D
:1006F8000D4E33687069002BF4D0026F126855688C
:10070800D5F10A05EED0F41C254400E0336814F84E
:10071800010F00219847AC42F8D170690349BDE840
:1007280070400A2204F01CB90000002004000020D8
:10073800014B01221A7070472D020020034B1A68E2
:10074800186002B17047FFF79FBF00BF000000208C
:100758000048704740420F0038B50D4B984200D909
:1007680038BD0C4D0446686903F0FEFA686903F069
:1007780053FA6869446004F06DF818B9BDE8384068
:10078800FFF782BF00F09EFABDE83840FFF77CBF54
:1007980040420F0000000020F8B5134C0025064623
:1007A8000F462570FFF702FF104B31465869BAB261
:1007B80003F04EFA0646FFF7FFFE6EB111E072B67F
:1007C800BFF34F8FBFF36F8F237803B930BF62B683
:1007D800BFF34F8FBFF36F8F2378002BEFD001202B
:1007E800F8BD2846F8BD00BF2D02002000000020FB
:1007F800704700BF08B54FF480714FF0904001F08A
:1008080027FEA0F10100B0FA80F0400908BD00BF42
:10081800014B01221A7070472C02002070B50F4C52
:10082800064601F027FA237805467BB113E072B635
:10083800BFF34F8FBFF36F8F237803B930BF62B612
:10084800BFF34F8FBFF36F8F237823B901F012FAEC
:10085800431BB342EBD30023237070BD2C0200204E
:1008680001F008BA1AF024BC1AF02ABC9FED010A5C
:10087800704700BF405DC64B38B50D4601F0FAF928
:10088800044611E001F0F6F9001BA84214D272B632
:100898004FF480714FF0904001F0DAFD012800D04C
:1008A80030BF62B6BFF36F8F4FF480714FF0904046
:1008B80001F0CEFD0128E5D14FF480714FF0904052
:1008C80001F0C6FDA0F10100B0FA80F0400938BD82
:1008D80008B507480022402101F0C0FD0448002265
:1008E800202101F0BBFDBDE80840022001F0C8B995
:1008F8000004004808B507480122202101F0AEFD98
:1009080004480122402101F0A9FDBDE80840022069
:1009180001F0B6B90004004870B51748174C0D46E9
:1009280016464021002201F099FD2A46294614481E
:100938000025B3B2257002F037FF00B170BD01F099
:1009480099F92378054683B941F2873608E072B6EB
:10095800237803B930BF62B6BFF36F8F237823B90A
:1009680001F088F9401BB042F1D9BDE87040024857
:100978000122402101F072BD000400482E0200202F
:10098800B0060020014B01221A7070472E02002089
:100998000048704750B50108FFF7FABFFFF790BE4F
:1009A800FFF7CCBEFFF7D4BEFFF7D6BEFFF7F4BE05
:1009B800FFF758BFFFF758BFFFF71ABFFFF728BF69
:1009C800FFF72CBFFFF74CBF014B1860704700BF03
:1009D80030020020FFF70EBFB0F5807F00D07047CF
:1009E800024B1B68002BFAD0184700BF30020020CA
:1009F800FFF7DCBDFFF7E0BD4FF0FF30704700BFE9
:100A0800002070474FF0FF30704700BF10B54FF619
:100A1800FF731446024892B203F078FE204610BDD8
:100A2800E40500200C490D4A0B6810B50C4C121B4C
:100A38002BB11844904207D80860184610BD094BDE
:100A48000B6018449042F7D91AF03AF90C23036066
:100A58004FF0FF33184610BD3402002000800120FB
:100A680000200000780C002030B597B04422002107
:100A780005A81AF055FB00244FF40070CDE9004496
:100A8800CDE90244049402F097FC02234FF48072EB
:100A9800CDE90F33CDE914330593012108920723DB
:100AA8000A2205A81025CDE911121393099501F022
:100AB80087FD0F22032368460421CDE90244CDE9CE
:100AC8000023049402F068F817B030BD80B5002404
:100AD80088B001F0ABF8FFF7C7FFCDE90344CDE9D3
:100AE80005446F4E0794F36C6E486F4D43F0040352
:100AF800F364F36C03F004030093009BF36C43F07E
:100B08000103F364F36C03F001030193019BF36C9D
:100B180043F00203F364F36C03F0020302932246EA
:100B28004FF40051029B01F099FC604822464FF4B3
:100B38008E6101F093FC22464FF4C0614FF0904063
:100B480001F08CFC01274FF400535648039303A986
:100B5800CDE90544049701F0C3FA4FF48E63534876
:100B6800039303A9CDE90474069401F0B9FA4FF48C
:100B7800807303A903934FF090404FF488130493B4
:100B8800059401F0ADFA4FF4C06303A94FF090400B
:100B98000393CDE90474069401F0A2FA2246214693
:100BA800172001F093F8172001F0C8F8B36C3B4305
:100BB800B364B36C3B402246214603930C20039B4D
:100BC80001F084F80C2001F0B9F8224621460D20E6
:100BD80001F07CF80D2001F0B1F8224621461020E2
:100BE80001F074F8102001F0A9F8224621461120DE
:100BF80001F06CF8112001F0A1F82D482D4A02608F
:100C08004FF4E0634FF4007107224FF48276C3601B
:100C1800082381614660C262C3614363C0E904443A
:100C2800C0E9084484608462046302F03BFD224A00
:100C3800AC604FF4E1330C262846C5E90023C5E92A
:100C48000344C5E90644C5E908446E6103F002FEA1
:100C58006421284603F000FB184A19484FF4612321
:100C6800C0E90023C0E90244C0E90644C0E90844D9
:100C78004661046103F0EEFD04F0CEFB04F0F0FCE5
:100C880004F046FE05F010F905F052FA05F06AFC8A
:100C980005F0A0FD4FF46B4003F08CFEFEE700BFAB
:100CA8000010024000080048140700200004004813
:100CB800B0060020003001400044004000480040D9
:100CC800E4050020704700BF0A4B1A6E42F001028B
:100CD8001A661A6E82B002F001020092009A9A6DAA
:100CE80042F080529A659B6D03F080530193019BFB
:100CF80002B070470010024070B50268334B88B0EC
:100D080000249A42CDE90344CDE90544079401D073
:100D180008B070BD03F560432D4E1A6E42F4805240
:100D28001A661A6E02F480520192019ADA6C42F045
:100D38000102DA64DB6C059403F001030293E022FC
:100D4800022303A90392049303220523054602986C
:100D580006924FF09040079301F0C2F91D49B46024
:100D6800012280233046C6E90544C6E90744C6E99E
:100D78000012F460336101F01DF800BB164C1748EF
:100D880020600123102180226360AE650023204685
:100D9800C4E90332C4E90533C4E90733B562A16085
:100DA80001F008F870B9002211466C652320A5628D
:100DB80000F08CFF232000F0C1FF08B070BDFFF7E2
:100DC80081FFDBE7FFF77EFFEDE700BF0030014062
:100DD800980700201C000240E00700203000024075
:100DE800F0B50024ADB00546882221460AA8CDE911
:100DF8000544CDE9074409941AF092F92B684E4A44
:100E0800934204D04D4A93425FD02DB0F0BD0223E7
:100E18000AA819940A9302F0ABF8002840F08680DB
:100E2800474B484E9A6D42F400329A659A6D02F427
:100E380000320192019ADA6C42F00102DA64DB6C4A
:100E480003F0010302930C230593032300240227D4
:100E580008934FF09040072305A9029A0993CDE91A
:100E6800067401F03DF9384A776080233046C6E9B8
:100E78000244C6E90544C6E907443260336100F01C
:100E880099FF00284FD1314C3148206002231021AE
:100E9800802263602E6700232046C4E90332C4E938
:100EA8000533C4E90733B562A16000F083FF002869
:100EB80036D100221146EC662620A56200F006FF16
:100EC800262000F03BFF2DB0F0BD04230AA81A9499
:100ED8000A9302F04DF860BB194B1E489A6D42F414
:100EE80080229A659A6D02F480220392039ADA6C42
:100EF80042F00402DA64DB6C03F0040304934FF459
:100F080040630322059305A9072302250024CDE9A0
:100F18000654CDE90823049E01F0E2F82DB0F0BD97
:100F2800FFF7D0FEC5E7FFF7CDFEACE7FFF7CAFE37
:100F380076E7FFF7C7FECFE70044004000480040CF
:100F4800001002409C0500206C000240680600204A
:100F58008000024000080048154A0368934203D005
:100F6800144A934218D0704702F5E63210B5936DD3
:100F7800044623F4003393650C214FF0904001F0B0
:100F8800B9F9206F00F076FFE06E00F073FFBDE85E
:100F98001040262000F0E0BE02F5E4320648936DCA
:100FA80023F4802393654FF4406101F0A3B900BF97
:100FB800004400400048004000080048704700BF57
:100FC800FEE700BFFEE700BFFEE700BFFEE700BF89
:100FD800704700BF704700BF704700BF00F03EBEBB
:100FE800014801F02DB800BF98070020014801F022
:100FF80027B800BFE0070020014801F021B800BF72
:101008009C050020014801F01BB800BF68060020BD
:101018004FF4807001F028BA014802F027BD00BFE4
:10102800B0060020014802F063BF00BF140700208B
:101038000E490F4BD1F8882042F47002C1F888207D
:101048001A68002142F001021A6099601A6822F0B9
:10105800A85222F410224FF480501A60D8601A68FF
:1010680022F480221A609961704700BF00ED00E009
:1010780000100240DFF834D0FFF7DAFF0C480D49C2
:101088000D4A002302E0D458C4500433C4188C42DB
:10109800F9D30A4A0A4C002301E013600432A24241
:1010A800FBD319F0DDFFFFF711FDFEE700800120FB
:1010B8000000002010020020243D02081002002039
:1010C800780C0020FEE70000B1F8C8305A1C92B234
:1010D800C82AA1F8C820C85400D0704710B500200D
:1010E8000C46FFF793FC0023A4F8C83010BD00BFDE
:1010F8000FB430B5B5B038AC0E4954F8045BCA2209
:1011080001A819F0E5FF2A4623460B48009401A9D7
:1011180000F054FDBDF8CC2004462AB9204635B06D
:10112800BDE8304004B0704701A90020FFF76EFC0D
:10113800F4E700BF00B40108D110000800F02EBD8C
:101148009A4238BF88547047704700BF2DE9F04F66
:1011580083B01746DDF848C09DF838A01CF002029D
:10116800DDE90C84DDE910E60546894600922AD1BE
:10117800002E40F0AE8074450CF0010080F01A811A
:101188001F2C88BF202400F21581621E42444FF0B4
:10119800300B01E0202C04D00134A64502F801BF31
:1011A800F8D880B1A6420ED9202C00F0A380621E88
:1011B8004244302002E0202C00F09C800134B442EC
:1011C80002F8010FF7D11CF0100F33D01CF4806F18
:1011D80040F09C80002C40F095800F9A102A00F077
:1011E800CE800F9A022A00F0E080302288F8002092
:1011F8000124BAF1000F00F096802D2208F804208F
:1012080001341CF0030F01D1B4421BD3BA462FE0BE
:101218001CF0200F40F0BB80202C0DD008EB040000
:10122800013478220270202C06D008EB040230200A
:1012380001341070202CDCD11CF0030F16D12024AF
:10124800A64279D907EB060AAAEB040A0194BB4621
:101258001C465A4623460BF1010B49462020A84755
:10126800D345F6D12346019C14B912E0BA4620248E
:10127800A2441196444408EB0A0B1E46ABEB040249
:1012880014F8010D33464946A8474445F6D133467C
:10129800119E009ACAB1AAEB0704A64215D998462E
:1012A8003A194346494601342020A847A642F7D8B0
:1012B8007B1E3344C7F10107A3EB0A035744B74227
:1012C80088BF00230AF1010A9A44504603B0BDE8DA
:1012D800F08F1CF0010033D0BAF1000F3DD11CF0A3
:1012E8000C0F3AD17445BFF45DAF1F2C7FF64DAF9C
:1012F800202E2BD91CF0100F9ED01CF4806F4FF0BD
:10130800200403D1A6452AD0B44228D00F9A102A27
:101318003FF47EAF0F9A022A85D1202C8CD008EB9F
:101328000402013454E01CF0040F11D11CF0080F22
:1013380020D11CF0030F83D0BA46002C98D1A8E71F
:101348007445BFF440AF1F2C7FF61FAF20243AE747
:101358002B2208F80420013453E7013EC2E7621E3D
:101368003FF43BAF0F99102928D00F9902292ED0AE
:1013780014465AE7202208F80420013441E71CF0FB
:10138800200F0DD1782288F8002001244DE7202C69
:101398003FF452AF08EB040258200134107042E7C2
:1013A800582288F8002001243FE7622288F80020AC
:1013B80001243AE7002808BF002604E71CF0200FA4
:1013C800A4F10204E6D108EB0400144629E74244DC
:1013D8006220107027E700BF2DE9F04F93B01C9DE5
:1013E8009DF874401E9EDDF884A009942DB92AF05A
:1013F80010041AF4806FA24634D11AF0200F0DF1B0
:10140800280B14BF4FF037094FF05709D84600276B
:1014180002E0202F15D07546B5FBF6FE06FB1E5CD4
:101428005FFA8CF4BCF1090F04F1300C8ABF4C440C
:101438005FFA8CF4E4B2B54208F8014B07F10107F2
:10144800E7D2209C05941F9CCDF818A0CDE9036431
:10145800099CCDF800B0CDE90174FFF777FE13B011
:10146800BDE8F08F2F460DF1280BEAE72DE9F04F84
:101478002DED048B93B0DDE920459B469DF888301F
:10148800089354EA0503DDE9248908EE100A08EEFA
:10149800901A09EE102A06D1289B289A23F01003E7
:1014A8002893530540D4289B13F0200F0AAB0993C7
:1014B80014BF4FF0370A4FF0570A1F46002603E0C3
:1014C800202E17D004460D4642464B462046294654
:1014D800FEF7E8FED2B2092A02F130038ABF52446D
:1014E800DAB2D2B24D4508BF444507F8012B06F1E0
:1014F8000106E5D2289B0693279B0593269BCDE9F9
:101508000383089BCDE90163099B009319EE102A18
:1015180018EE901A18EE100A5B46FFF717FE13B084
:10152800BDEC048BBDE8F08F0AAB00260993E1E718
:101538002DE9F04FCA4E91B01C461B781A9DB1F1A7
:10154800000A914614BF8346B346002B00F0798207
:101558004FF0000818460AE042464B46514608F14B
:1015680001080134D8472078002800F02581252873
:10157800F2D1631C00211C4613F8010BA0F12002D4
:10158800102A0AD8DFE802F03B09093809090909D5
:1015980009090935093209092F00A0F13003092B7F
:1015A80040F2EB802A2800F0158100262E2800F052
:1015B800F4800027A0F16803122B2AD8DFE813F083
:1015C800520129004A012900220029002900290086
:1015D8002900290029002900D8002900290029000C
:1015E80029002900D80041F00101C4E741F00201B7
:1015F800C1E741F00401BEE741F01001BBE741F04B
:101608000801B8E760786C2800F00E8241F4807118
:101618000134A0F12503532B9ED801A252F823F0E0
:101628007D1800086115000861150008611500089B
:1016380061150008611500086115000861150008AA
:10164800611500086115000861150008611500089A
:10165800611500086115000861150008611500088A
:10166800611500086115000861150008611500087A
:10167800611500086115000861150008611500086A
:10168800611500086115000861150008611500085A
:10169800611500086115000861150008611500084A
:1016A800611500086115000861150008611500083A
:1016B800611500086115000861150008611500082A
:1016C800611500086115000861150008611500081A
:1016D800611500086115000861150008611500080A
:1016E800611500086115000861150008F117000868
:1016F80061150008611500086115000861150008EA
:1017080061150008611500086115000861150008D9
:1017180061150008F117000851190008F1170008B1
:1017280061150008611500086115000861150008B9
:10173800F117000861150008611500086115000817
:101748006115000861150008F1170008251900083F
:101758006115000861150008911800086115000856
:10176800F11700086115000861150008F117000855
:10177800607841F4807101344BE7002606EB860659
:1017880000EB460614F8010FA0F13003092BA6F16F
:101798003006F3D92E287FF40CAF6078A0F1300220
:1017A800092A41F4806104F1010340F2E7802A2804
:1017B80000F0F3801C46FCE64446C14501D809F117
:1017C800FF384B46424651460020D847204611B0C4
:1017D800BDE8F08F55F8046B6078002EBCBF41F06F
:1017E800020176420134E1E6782800F02281582887
:1017F80000F0E1806F2800F08A81622800F0E5801F
:10180800692821F010034FF00A0C40F0E1804A05E6
:1018180040F1E58023F00103692800F0E0806428A6
:1018280000F0DD8013F4007240F07581D80500F1F6
:101838009A81590655F8042B00F17F81180648BF94
:1018480092B200210092CDE90463CDE902C7424675
:101858000191DDE0607841F400710134D9E600BF00
:10186800511100086078682800F0D98041F08001A3
:101878000134CEE608F1010642464B465146252082
:101888000134B046D8476EE62A4652F8043B0B931B
:101898000D92002F40F0888018786FF0010500281D
:1018A80000F074816B1C1A460C930B9B9D1801E089
:1018B8009D4206D013F8012F002AF9D10B9A9B1AE2
:1018C8000C9311F480630E9304D00C9BBB4228BF89
:1018D8003B460C9311F002030F9300F0E0800028C0
:1018E80000F0CB800B9D0B9642460E9E00E04246D0
:1018F8004B4651461EB107F1FF3C3FB16746D847FA
:1019080015F8010F08F101080028F0D10F9B0B9E74
:10191800002B40F0B2800D9D013424E60822CDE969
:10192800037200231022CDE9013241F02101059113
:1019380055F8043B009342464B4651465846FFF73C
:101948004BFD013480460EE689077DD555F8040B1A
:101958004B464246C0B25146D847012E08F101070E
:1019680088BF464407D93A464B460137514620209E
:10197800D847B742F7D1B8460134F4E5002707EB5A
:10198800870700EB470713F8010FA0F13002092A77
:10199800A7F13007F3D91C460CE655F8047BA0786C
:1019A80027EAE777023405E60B9B1878002800F051
:1019B800EB807D1E76E721F00C034A0543F02003F7
:1019C8004FF0100C3FF526AF2CE74FF0020C0B46FA
:1019D800642818BF19462ED159053FF51BAF990544
:1019E80076D4DA0500F1B080580655F8042B00F1DA
:1019F800A280190648BF12B282EAE271D00FA1EBA9
:101A0800E271CDE90463CDE902C7CDE90010424691
:101A18004B4651465846FFF7DFFC8046ACE7A078B6
:101A280041F0C0010234F4E5A07841F44071023479
:101A3800EFE54FF0100C4A0521F00C033FF5EAAE34
:101A4800EAE61C469846B8E6012E40F29B8008F16B
:101A5800FF331E4442464B4608F1010851462020F8
:101A6800D847B045F6D155F8040B4B463246C0B2BC
:101A7800514606F10108D8477EE70C9B9E42454631
:101A88007FF649AF06EB0800A0EB03082A464B4651
:101A9800013551462020D8474545F7D13BE70C9AF8
:101AA800964202F1010368D906EB0805AD1A4246D1
:101AB8004B4608F1010851462020D847A845F6D1E1
:101AC800731C0C930B9B187800287FF40BAF22E74C
:101AD800073525F007056A6855F808EB089370463E
:101AE800114600230028CDE904C34FEAD27271F1F0
:101AF8000003CDE90676029221DBCDE900014246DA
:101B08004B4651465846FFF7B1FC804634E74FF044
:101B1800080C0B465CE70022CDE904C2CDE9076357
:101B28000735029225F007050697F5E802014246B7
:101B3800CDE90001E4E752B25EE7D2B281E6DEF118
:101B4800000061EB4101D8E755F8041B0593002913
:101B58004FEAD173B8BF4942CDE90376CDE9013CDC
:101B68004246009154E7CDE90463CDE902C70192EA
:101B780055F8043B009342464AE70C9300287FF44B
:101B8800B1AEC8E646466EE70C909AE60C9798E622
:101B980010B1D1E900311847704700BF30B583B0A4
:101BA8000D461446014600932A4623460248FFF78D
:101BB800BFFC03B030BD00BF4911000830B585B087
:101BC800054600930C46134602A94FF0FF3203481E
:101BD800CDE90254FFF7ACFC05B030BD991B0008F5
:101BE80038B50F4B1B780BB9012038BD0D494FF4A0
:101BF8007A720546B2FBF3F30868B0FBF3F000F025
:101C0800BFF804460028EFD10F2DEDD8024629462B
:101C18004FF0FF3000F05AF8034B20461D6038BDE6
:101C28001C00002018000020200000200A4A136829
:101C380043F4807310B50320136000F033F80020DC
:101C4800FFF7CEFF10B10124204610BD0446FFF770
:101C58003BF8204610BD00BF00200240034A044B59
:101C680011681B780B441360704700BF28080020D8
:101C78001C000020014B1868704700BF280800208E
:101C880038B50446FFF7F6FF631C054602D0044B3F
:101C98001B781C44FFF7EEFF431BA342FAD338BD61
:101CA8001C0000200849CA6810B400024FF6FF045F
:101CB800224000F4E063134343F0BF6343F400336E
:101CC8005DF8044BCB60704700ED00E0194BDB6812
:101CD800C3F3022330B4C3F10705042D03F1040450
:101CE80028BF0425062C19D9033B4FF0FF349C402C
:101CF80022EA04024FF0FF34AC4021EA0401994083
:101D0800002841EA02010CDB00F1604000F5614067
:101D18000901C9B280F8001330BC7047002213468D
:101D2800E8E7054B00F00F0009010344C9B2197632
:101D380030BC704700ED00E0FCEC00E0002807DB59
:101D4800044A00F01F01012340098B4042F820306B
:101D5800704700BF00E100E000280DDB4309074998
:101D68002033012200F01F0002FA00F041F823009E
:101D7800BFF34F8FBFF36F8F704700BF00E100E0E4
:101D88000138B0F1807F0ED2084B10B4084C58606F
:101D9800F02084F823000022072110469A605DF89D
:101DA800044B196070470120704700BF10E000E045
:101DB80000ED00E000284BD0264A03460068904218
:101DC80070B441D9244A2549254C1C640244A1FB1E
:101DD8000212120992005A64D3E90242D3E904516B
:101DE80022439E692A43022583F825500A43DD6968
:101DF800016832432A431D6A21F4FF412A4321F036
:101E080070010A43B4F5804F026014D0196C154A6A
:101E1800914208BF14495A6C18BF144902F01C00BB
:101E28000F240A68844022EA04020A605A680C688F
:101E3800824022430A6000200122D86383F82400EC
:101E480083F8252070BC7047094A0449054CBCE753
:101E58000120704707040240F8FBFDBFCDCCCCCC75
:101E68000004024000000240A8000240A80402400A
:101E7800F8FFFDBF00283ED00268204913688A4257
:101E880023F00103F0B4136024D91D4B1D491E4EE5
:101E98001E4C06641344A1FB03131B099B0003F0AB
:101EA8001C050121A940002743641760716023685D
:101EB8000F22AA4023EA020323600023C36380F8A9
:101EC800243080F82530C0E90B33C0E90D33F0BC6D
:101ED800184670470E4B0B490E4E0F4C06641344C0
:101EE800A1FB03131B099B0003F01C050121A9405A
:101EF80000274364D9E70120704700BF0704024068
:101F0800F8FBFDBFCDCCCCCC00040240A8040240B5
:101F1800F8FFFDBF00000240A8000240F0B490F8AE
:101F28002440012C3DD090F825400126B442E5B26A
:101F380080F8246005D0002380F82430F0BC02200B
:101F480070470468D0F840C00227002680F8257042
:101F5800C663476C266807F01C0726F00106266052
:101F6800BD408668CCF804506360036B102E0BBF2D
:101F7800A260A160E160E26053B1236843F00E0300
:101F88002360236843F0010323600020F0BC7047FE
:101F9800236823F004032360236843F00A032360C3
:101FA800EFE70220F0BC704790F82520022A03468C
:101FB80006D004210022C16380F824200120704744
:101FC8000168426C086820F00E0030B41D6C08608F
:101FD8000868012420F0010002F01C02086004FADD
:101FE80002F200216A6083F8254083F8241008462D
:101FF80030BC704790F82520022A03D00422C2631F
:10200800012070470168426C70B50C68066C856BDE
:1020180024F00E040C600C6824F001040C6002F03B
:102028001C02012101FA02F20024726080F82510D6
:1020380080F8244015B1A847204670BD284670BDD9
:1020480070B4D0E9106304223168056803F01C03FA
:102058009A400A422C680ED014F0040F0BD02B685B
:102068009B0603D42B6823F004032B60036B726078
:10207800CBB170BC184702229A400A4215D014F01E
:10208800020F12D02B68990606D42B68012123F081
:102098000A032B6080F82510C36A7260002280F85A
:1020A8002420002BE5D170BC704708229A400A42D0
:1020B800F9D02207F7D52A68416B22F00E022A6070
:1020C800012202FA03F300247360C26380F82440FB
:1020D80080F825200029E6D070BC0847C06B7047FF
:1020E8002DE9F04F0C6885B0002C00F08E80DFF8E9
:1020F80000B200234FF0010A88460AFA03FC1CEAE2
:1021080004097DD0D8F8041001F00306721E012AD4
:102118007ED9032E40F0C080C26AC1F3C00522EA0E
:102128000C0C9D405A0045EA0C0506FA02F2C562FD
:10213800D54300950668009D35402A4311F4403F79
:1021480002605DD0634D2A6E42F001022A662A6E53
:1021580023F0030606F1804602F0010206F58036F8
:10216800039203F00305039AB768AD000F22AA4053
:10217800B0F1904F27EA02021BD0574FB84200F047
:102188009680564FB84200F09680554FB84200F0FE
:102198008980544FB84200F09380534FB84200F002
:1021A8009480524FB8420CBF0627072707FA05F557
:1021B8002A43B260DBF80820CD026FEA090654BF53
:1021C800324049EA0202CBF80820DBF80C508A02B8
:1021D80054BF354049EA0505CBF80C50DBF80450EC
:1021E8008F0354BF354049EA0505CBF80450DBF8A6
:1021F8000020C90354BF324049EA0202CBF800204C
:10220800013334FA03F27FF478AF05B0BDE8F08FFC
:1022180087685A000325954027EA050ED8F80C7000
:10222800974047EA0E078760D0F804E0C1F300172B
:102238002EEA0C0C9F4047EA0C07ED4300954760D7
:10224800C768009D07EA050CD8F80870974047EA68
:102258000C07022EC76002D006FA02F26AE74FEABC
:10226800D30E00EB8E0E03F0070CDEF8205001951C
:102278004FEA8C0C0F2505FA0CF7019D25EA070794
:10228800D8F81050019705FA0CF7019D2F4306FA6C
:1022980002F2CEF820704DE75A0003259540ED4331
:1022A8000095CDE7032707FA05F52A4381E70AFADF
:1022B80005F52A437DE7022707FA05F52A4378E75B
:1022C800042707FA05F52A4373E7052707FA05F5F2
:1022D8002A436EE700100240000400480008004846
:1022E800000C00480010004800140048001800487E
:1022F80000040140002900F09B802DE9F04FDFF831
:1023080048C1DFF848A183B000234FF0010E4FF019
:102318000F090EFA03F414EA01066BD023F0030543
:1023280005F1804505F5803503F00302AF6892009A
:1023380009FA02F808EA0707B0F1904F019717D099
:1023480050455ED03B4FB8425ED03B4FB84265D057
:102358003A4FB84267D03A4FB8425AD0394FB8428C
:1023680014BF4FF0070B4FF0060B0BFA02F200E018
:102378000022019F97421BD1DCF8002022EA0602C6
:10238800CCF80020DCF8042022EA0602CCF804206D
:10239800DCF80C2022EA0602CCF80C20DCF8082035
:1023A80022EA0606CCF80860AA6822EA0802AA60AF
:1023B80002685D000326AE40DD08324300EB850568
:1023C800026003F007022F6A920009FA02F227EA74
:1023D80002022A62826822EA06028260426822EACF
:1023E80004024260C26822EA0606C660C26A22EA9D
:1023F8000404C462013331FA03F28AD103B0BDE8A0
:10240800F08F0EFA02F2B4E74FF0020B0BFA02F269
:10241800AFE74FF0050B0BFA02F2AAE74FF0030BF8
:102428000BFA02F2A5E74FF0040B0BFA02F2A0E751
:10243800704700BF00080048000C00480010004822
:102448000014004800180048000401400004004837
:102458000369194214BF0120002070470AB1816145
:1024680070478162704700BF044A5169014200D138
:10247800704708B55061FEF7AFFA08BD0004014087
:1024880030B5204DAB6DDB0083B004461CD500F0A1
:102498008BFFB0F5007F29D0802C13D82FD0A4F162
:1024A8007004B4FA84F4640917490B6823F007032D
:1024B80023430B60086800F00700001B18BF0120C9
:1024C80003B030BD0324EFE7AB6D43F08053AB6539
:1024D800AB6D03F080530193019B00F065FFAB6D7A
:1024E800B0F5007F23F08053AB65D5D1802C04D99B
:1024F800A02C8CBF02240124D6E70024D4E70224B0
:10250800D2E700BF0010024000200240284A93682A
:10251800D26813F00C0308D00C2B38D0042B34D01D
:10252800082B244818BF00207047214A1168090762
:1025380054BFD2F8942012681F4954BFC2F3032233
:10254800C2F3031251F8220003B30C2B2DD1184B00
:10255800DB6803F00303022B25D0164A032B08BFC0
:102568001046134BD968DA68DB68C3F34163C2F3DA
:102578000622C1F302110133013100FB02F05B00B6
:10258800B0FBF1F0B0FBF3F070470C48704702F075
:102598000302012AC9D0064BDB6803F00303022BB0
:1025A8004FF00000D9D10548DBE70020704700BF95
:1025B8000010024000127A00A4B501080024F400BB
:1025C800002800F03B822DE9F043AC4A0368956887
:1025D800D6680446D80683B005F00C0506F0030655
:1025E8002ED5002D00F003810C2D00F0FD80A3698D
:1025F800A24F002B00F0C8813B6843F001033B6009
:10260800FFF738FB804606E0FFF734FBA0EB080035
:10261800022800F2CA813B689B07F5D53B6843F066
:1026280008033B603B68226A23F0F00313433B60D6
:102638007B68E26923F47F4343EA02237B602368D3
:10264800D90700F1A680990723D5042D00F08B81C6
:102658000C2D00F08581E368884E002B00F0C081C6
:10266800336843F480733360FFF704FB074605E0E3
:10267800FFF700FBC01B022800F2978133685B0557
:10268800F6D57368226923F0F85343EA026373604E
:102698002368190719D56369784E002B00F04C811F
:1026A800D6F8943043F00103C6F89430FFF7E2FA05
:1026B800074605E0FFF7DEFAC01B022800F2758125
:1026C800D6F894309A07F5D523685F073ED56B4B4B
:1026D8009A6DD60000F182819A6D42F080529A6517
:1026E8009B6D03F080530193019B0126644F3B6867
:1026F800D80540F1BD81A368012B00F08381052B2B
:1027080000F038825D4FD7F8902022F00102C7F818
:102718009020D7F8902022F00402C7F89020002BD0
:1027280040F07781FFF7A6FA41F28839804606E043
:10273800FFF7A0FAA0EB0800484500F23681D7F869
:1027480090309B07F4D4002E40F0A481A36A002B9C
:1027580000F0E180022B00F0B6810C2D00F089809A
:10276800464C236823F080732360FFF783FA0546FD
:1027780005E0FFF77FFA401B022800F21681236864
:1027880013F00073F5D1E1683E4A0A401846E2604A
:10279800C2E0082D00F0C6800C2D00F0C0806368F0
:1027A800B3F5803F00F00581B3F5A02F00F07E81DE
:1027B800324F3A6822F480323A603A6822F4802232
:1027C8003A60002B40F0FA80FFF754FA804606E0A2
:1027D800FFF750FAA0EB0800642800F2E6803B6897
:1027E8009803F5D423682EE7012E7FF400AF234B1E
:1027F8001B6899073AD4214B206A1A68120756BFFA
:10280800D3F894301B681B0903F0F003984200F2D8
:1028180017811A4B1A6842F008021A601A6822F0E7
:10282800F00202431A605A68E16922F47F4242EAE0
:1028380001225A60002D00F03381FFF767FE0F4A2E
:1028480011499268C2F3031203468A5C0F48104983
:10285800006802F01F02D3400B60FFF7C1F900289F
:102868005AD12368D9077FF5EEAE92E7A369002B0A
:10287800C1D1012003B0BDE8F08300BF00100240C1
:1028880000700040FCFFEEFE8CB50108200000201F
:1028980018000020216B03F070020139B2EB011F10
:1028A80040F01981616B03F4FE42B2EB012F40F056
:1028B8001281A26B073A03F4003118BF012291423A
:1028C80040F00981E26B5208013A03F4C001B1EB10
:1028D800425F40F00081226C520803F0C063013A65
:1028E800B3EB426F40F0F78033689A0113D4336832
:1028F80043F080733360F36843F08073F360FFF74D
:10290800B9F9044604E0FFF7B5F9001B02284CD8D2
:1029180033689B01F7D5002003B0BDE8F083032E90
:102928007FF43DAF9A4A126892037FF58CAE6268D5
:10293800002A7FF488AE9CE7D6F8943023F0010390
:10294800C6F89430FFF796F9074604E0FFF792F9C6
:10295800C01B022829D8D6F894309B07F6D4B3E6D2
:10296800022E7FF478AE8A4A1268520503D5E268CF
:10297800002A3FF47EAF864920694A6822F0F8525F
:1029880042EA00624A6084E63B6823F001033B6048
:10299800FFF770F980463B6898077FF562AFFFF74D
:1029A80069F9A0EB08000228F5D9032003B0BDE8B7
:1029B800F083774A136843F480331360FFF75AF9BA
:1029C800DFF8CC81074604E0FFF754F9C01B642800
:1029D800EBD8D8F800309B03F6D503E7002685E648
:1029E800336823F480733360FFF744F9074604E043
:1029F800FFF740F9C01B0228D7D833685805F7D429
:102A0800236846E6624AD2F8903043F00103C2F8E0
:102A18009030FFF72FF9DFF87881074641F28839BF
:102A280004E0FFF727F9C01B4845BED8D8F8903016
:102A38009A07F6D5002E3FF489AE2BE001207047A7
:102A4800FFF71EFD00287FF414AF514B1A6842F0BF
:102A580008021A601A68216A22F0F0020A431A6012
:102A68005A68E16922F47F4242EA01225A60E4E6A8
:102A78003B6843F480733B60FFF7FCF880463B6893
:102A8800D9053FF538AEFFF7F5F8A0EB08000228A6
:102A9800F5D98AE73E4A936D23F08053936555E64E
:102AA800FFF7EEFC00283FF4C8AEE2E603F18043EE
:102AB800A3F53C331A6842F480221A601A6842F47B
:102AC80080321A607AE7324EE26AF36803F0030153
:102AD80091423FF4DFAE0C2D3FF4CBAE2C4D2B686A
:102AE8005F013FF5C6AE2B68DE003FF5C2AE2B682E
:102AF80023F080732B60FFF7BDF8064605E0FFF76B
:102B0800B9F8801B02283FF650AF2B689801F6D41D
:102B1800E968204BE26A676B266B0B40D4E90E012B
:102B2800134343EA0723226C741E43EA0413000983
:102B3800490843EA40430139520843EA4153013AFC
:102B480043EA4263EB602B68114E43F080732B60BD
:102B5800EB6843F08073EB60FFF78CF8044605E000
:102B6800FFF788F8001B02283FF61FAF336899016A
:102B7800F6D5D0E6064BD3F8902042F00402C3F80D
:102B88009020D3F8902042F00102C3F8902040E74B
:102B9800001002408C809DF9002800F09F80534A65
:102BA800136803F007038B422DE9F0410D460446F4
:102BB8000CD2136823F007030B431360136803F068
:102BC80007038B4202D00120BDE8F08123689E07ED
:102BD80071D54748A168826802F0F002914204D991
:102BE800826822F0F0020A438260DA0726D562681A
:102BF8003F4B032A1B6865D0022A6CD0002A71D18A
:102C08009B07E0D53A4EB36823F003031343B36040
:102C1800FFF730F841F28838074604E0FFF72AF852
:102C2800C01B40455CD8B368626803F00C03B3EB83
:102C3800820FF3D123689E0706D5A1682C488268C5
:102C480002F0F0028A4240D828490A6802F00702D6
:102C5800AA4209D90A6822F007022A430A600A68C8
:102C680002F00702AA42AED15D0706D52049E06806
:102C78008A6822F4E06202438A60180707D51C4A72
:102C88002169936823F4605343EAC1039360FFF713
:102C98003DFC174A174C92681749C2F303120346C2
:102CA800A25C164802F01F02D340BDE8F04100685C
:102CB8000B60FEF795BFD907C6D562680C4B032A8F
:102CC8001B6899D198019DD47DE7826822F0F002B3
:102CD80011438160B8E7990394D474E701207047E1
:102CE800032071E75F057FF56EAF8BE70020024098
:102CF800001002408CB501081800002020000020B8
:102D0800054B064A9B680649C3F302230868D35C4F
:102D180003F01F03D8407047001002409CB501081B
:102D280018000020054B064A9B680649C3F3C223D6
:102D38000868D35C03F01F03D840704700100240B6
:102D48009CB5010818000020F8B5474BDA689207CF
:102D580004460F4607D0DA68016802F003028A4287
:102D68004CD00120F8BD0068022858D003284FD065
:102D78000128F6D11B689B07F4D53B496268CB68EC
:102D880023F073031843013A40EA0210C860364D35
:102D98002B6823F080632B60FEF76CFF064604E087
:102DA800FEF768FF831B022B3DD82B681A01F7D466
:102DB800002F3AD12B69D4E9021223F41F3323F4EC
:102DC800407343EA0123120943EA42432B61264D2B
:102DD8002B6843F080632B60FEF74CFF064604E047
:102DE800FEF748FF831B022B1DD82B681B01F7D564
:102DF800A2692B6913432B610020F8BD002AB0D0CB
:102E0800DB684268C3F3021301339342A9D1BEE7DA
:102E18001A689503B1D41B685903A2D5ADE71B689E
:102E28005E059ED5A9E70320F8BD012F2B690DD0BB
:102E38006269A16823F0C06323F4FE43520843EAA1
:102E48000123013A43EA42632B61C0E72269A16882
:102E580023F4C00323F4FE43520843EA0123013A52
:102E680043EA42532B61B2E700100240F8B53F4BEA
:102E7800DA68920704460F4607D0DA68016802F05C
:102E880003028A424CD00120F8BD0068022858D0BD
:102E980003284FD00128F6D11B689B07F4D5334986
:102EA8006268CB6823F073031843013A40EA0210C2
:102EB800C8602E4D2B6823F080532B60FEF7DAFE96
:102EC800064604E0FEF7D6FE831B022B3DD82B688E
:102ED8009A00F7D4002F3AD16B69D4E9021223F48F
:102EE8001F3323F4407343EA0123120943EA4243A0
:102EF8006B611E4D2B6843F080532B60FEF7BAFEC2
:102F0800064604E0FEF7B6FE831B022B1DD82B688D
:102F18009B00F7D562696B6913436B610020F8BDAC
:102F2800002AB0D0DB684268C3F30213013393422E
:102F3800A9D1BEE71A689503B1D41B685903A2D575
:102F4800ADE71B685E059ED5A9E70320F8BD6B6950
:102F58002269A16823F0C06323F4FE43520843EAC0
:102F68000123013A43EA42636B61C2E70010024061
:102F78002DE9F043036813F4006683B0044620D0BB
:102F8800416EB1F5000F00F0D38100F222810029D3
:102F980000F0AC81B1F5800F40F01F810021203096
:102FA800FFF764FF0646002E40F0CF81616E23686C
:102FB800C248D0F8882022F440021143C0F8881093
:102FC8000026D80440F10E81A16EB1F1007F00F017
:102FD800B58100F26881002900F08281B1F1807F1B
:102FE80040F09B81002104F12000FFF73FFF236898
:102FF8008046B8F1000F40F05E81B049A06ED1F86C
:10300800882022F040720243C1F88820990300F119
:10301800ED80DA0708D5A949A06BD1F8882022F0FD
:1030280003020243C1F888209F0708D5A349E06B33
:10303800D1F8882022F00C020243C1F888205D07ED
:1030480008D59E49206CD1F8882022F0300202432E
:10305800C1F88820180708D59849606CD1F88820ED
:1030680022F0C0020243C1F88820D90608D5934946
:10307800A06CD1F8882022F440720243C1F888205D
:103088009A0608D58D49E06CD1F8882022F4406270
:103098000243C1F888209F0508D58849E06DD1F81A
:1030A800882022F440220243C1F888205D0508D513
:1030B8008249206ED1F8882022F440120243C1F8D8
:1030C8008820580608D57D49206DD1F8882022F43B
:1030D80040520243C1F88820190608D57749606D27
:1030E800D1F8882022F440420243C1F88820DA054A
:1030F80008D57249A06DD1F8882022F440320243E5
:10310800C1F888209F0410D56C49E06ED1F888205A
:1031180022F040620243B0F1006FC1F8882000F04D
:10312800F280B0F1806F00F023811D0310D5634950
:10313800206FD1F8882022F040620243B0F1006F7E
:10314800C1F8882000F0E480B0F1806F00F01881A9
:10315800580310D55949606FD1F8882022F0406291
:103168000243B0F1006FC1F8882000F0C780B0F1C9
:10317800806F00F0F580590410D55048A16FD0F841
:10318800882022F040520A43B1F1805FC0F88820BD
:1031980000F0C680B1F1005F00F0D9801A0408D5AC
:1031A8004649E06FD1F8882022F080420243C1F8F6
:1031B8008820DB0309D5414AD4F88010D2F888303A
:1031C80023F000430B43C2F88830304603B0BDE813
:1031D800F083B1F5400F3FF4EBAED8044FF0010691
:1031E8003FF5F2AEB04699037FF513AF334B9A6DB6
:1031F800D20067D54FF00009314D2B6843F4807336
:103208002B60FEF737FD074604E0FEF733FDC31BCE
:10321800022B63D82B68DB05F7D5B8F1000F40F017
:10322800BD80264DD5F8903013F4407327D0D4F8DC
:1032380084209A4225D0D5F89010D5F8903043F4E0
:103248008033C5F89030D5F8903021F4407023F4DD
:103258008033C5F89030C5F89000C80740F1A080C9
:10326800FEF708FD41F28838074604E0FEF702FD44
:10327800C01B404532D8D5F890309907F6D5D4F818
:1032880084300E49D1F8902022F440721343C1F8DB
:103298009030B9F1000F04D0084A936D23F08053A1
:1032A80093652368B5E6B1F1407F36D1B046B8F1F1
:1032B800000F3FF4A2AE464695E700BF001002405B
:1032C800007000409A6D42F080529A659B6D03F041
:1032D80080530193019B4FF001098DE70326D8E73E
:1032E800201DFFF731FD2368804682E60430FFF792
:1032F8002BFD0646002E3FF459AE26E0CA6842F47C
:103308008012CA6037E7CA6842F48012CA600CE7C4
:10331800CA6842F48012CA601AE70126B04662E71A
:103328000221201DFFF710FDC0B12368064635E7CE
:103338001C48C26842F48032C26039E61949CA683A
:1033480042F48032CA60B04653E6236839E6022167
:1033580004F12000FFF78AFD0028E6D123681DE765
:103368000121201DFFF7F0FCB0B12368064602E7F3
:103378000121201DFFF7E8FC60B123680646D4E66A
:103388000121201DFFF7E0FC10B123680646DFE6A7
:103398002368DDE62368C8E62368ECE6464678E756
:1033A80013466EE700100240024B186800F4C06034
:1033B800704700BF00700040B0F5007F0ED01F4A74
:1033C800136803F4C063B3F5806F32D0136823F435
:1033D800C06343F4806313600020704717490B688B
:1033E80003F4C063B3F5007F23D00A68144B154873
:1033F80022F4C06242F4007210B40A601C684A6980
:10340800322303FB04F3A0FB03039B0C500503F1D9
:10341800010306D500E023B14A69520503F1FF33E1
:10342800F9D4064B5B695B0505D400205DF8044BB5
:103438007047002070470320F8E700BF0070004085
:103448001800002083DE1B43F0B583B00C461746F6
:103458000646FEF70FFC27443D1AFEF70BFC254BEA
:103468001B68C3F3CB3305FB03F3074601933268AC
:1034780001E0631C06D1936813F08003F9D1184664
:1034880003B0F0BDFEF7F6FBC01BA84208D2019AB4
:10349800019B002A03F1FF3308BF00250193E6E7EB
:1034A800D6E900315A68B1F5827F22F0E0025A600D
:1034B80014D0B26AB2F5005F07D00122002386F863
:1034C8005D2086F85C300320DAE71A6822F400529F
:1034D8001A601A6842F400521A60EEE7B268B2F550
:1034E800004F02D0B2F5806FE3D11A6822F0400293
:1034F8001A60DEE7180000202DE9F04383B09846F3
:10350800002315468DF8033006460C46FEF7B2FB3D
:10351800A844A8EB0007FEF7ADFB304BD6F80080B7
:103528001B6803EB8303C3EBC3031B0D07FB03F308
:1035380081460193424601E06B1C0ED193682340FB
:103548001DD0B4F5C06FF7D198F80C30DBB28DF808
:1035580003309DF803306B1CF0D0FEF78BFBA0EB1B
:103568000900B8420FD2019A019B002A03F1FF33E8
:1035780032680193936808BF00272340E1D11846B9
:1035880003B0BDE8F083D6E900315A68B1F5827F0F
:1035980022F0E0025A6014D0B26AB2F5005F07D098
:1035A8000122002386F85D2086F85C300320E7E7D7
:1035B8001A6822F400521A601A6842F400521A601B
:1035C800EEE7B268B2F5004F02D0B2F5806FE3D1F2
:1035D8001A6822F040021A60DEE700BF18000020D7
:1035E800F8B504464068B0F5827F0E4617460CD001
:1035F8003A4631462046FFF727FF0546C8B96368B3
:10360800B3F5827F1CD02846F8BDA368B3F5004FF8
:1036180002D0B3F5806FEBD12068036823F0400334
:1036280003603A4631462046FFF70EFF054600285C
:10363800E5D0236E032543F0200323662846F8BD12
:10364800A368B3F5004F02D0B3F5806FDBD13B46DA
:1036580032464FF4C0612046FFF74EFF0028D2D013
:10366800E7E700BF70B513460D4616460A464FF405
:10367800C0510446FFF740FF70B93246294620463C
:10368800FFF7E2FE40B933462A464FF4C0612046B0
:10369800FFF732FF00B970BD236E43F020032366A5
:1036A800032070BD00287BD0D0F824C02DE9F0415C
:1036B8000446BCF1000F58D00023C0E9043394F845
:1036C8005D30002203F0FF01A262002B5AD021686E
:1036D800E268022384F85D300B68B2F5E06F23F0EE
:1036E80040030B6048D9B2F5706F5BD1A36A00271D
:1036F80003F40050D4E901362569D4F818E006F43B
:10370800044603F48273334305F002052B436569CD
:1037180002F4706805F00105626B2B43D4E9076574
:1037280002F0080242EA08024FEA1E480EF4007E40
:1037380008F0040843EA0E0306F0380642EA0802D5
:10374800334305F080050CF0100C42EA0C0C2B43B7
:10375800034300224CEA070701250B604F602266ED
:1037680084F85D501046BDE8F0814368B3F5827F68
:10377800A5D0C0F81CC0A2E70CD04FF48057002099
:10378800A062B7E784F85C102046FDF7B5FAD4F8D4
:1037980024C09CE7A36A4FF4805703F40050A9E7BC
:1037A800012070470027EAE770B5044690F85C00EE
:1037B800012879D094F85D000125A842C6B284F8A2
:1037C8005C500DD06068B0F5827F04D002200023E1
:1037D80084F85C3070BDA0680028F7D1042EF5D1BC
:1037E80000295FD0002A5DD0002B5BD094F85D00E3
:1037F8002568042818BF05204FF0000618BF84F874
:103808005D002666E387A4F846306868A16320F463
:10381800C041E068A387B0F5E06FC4E9136622648D
:10382800A4F8443069604AD96B68A06D23F48053CA
:103838006B6094F85D30042B07BF4249424B434903
:10384800434BC0E90B31B4F8463042494163002686
:1038580005F10C019BB28663FEF760FB30BB226862
:10386800656D5368A16B43F001035360E38F2863D0
:10387800C5E90D00E8620C329BB22846FEF74EFB04
:10388800A0B923681A68520603D41A6842F04002A5
:103898001A605A6842F020025A605A6842F00202DE
:1038A8005A6094E7012092E7022070BD236E01223E
:1038B80043F010032366104684F85D2087E7606DA7
:1038C8006968806941F48051B0F5806F696018D0EB
:1038D800A06D8369B3F5806FABD16B6823F4805317
:1038E8006B60B4F8463013F0010F6B6815D123F400
:1038F80000536B60B4F84630C3F34E03A4F8463067
:1039080097E713F0010F6B6812D123F480436B60C3
:10391800E38FC3F34E03E387DAE743F400536B60A6
:10392800B4F84630C3F34E030133A4F8463080E7B9
:1039380043F480436B60E38FC3F34E030133E387A3
:10394800C6E700BF69390008AD39000879390008B1
:10395800193A000889390008704700BF704700BF4E
:1039680008B5806AFFF7FAFF08BD00BF704700BFBF
:1039780008B5806AFFF7FAFF08BD00BF704700BFAF
:10398800806A026808B5536823F003035360036E26
:10399800012143F01003036680F85D10FFF7EEFF86
:1039A80008BD00BF38B50546846AFEF763F92B6881
:1039B8001B689B0618D4236859680246A06821F042
:1039C80020015960B8B1596821F00101596064219A
:1039D8002046FFF705FE58B901230022A4F8462027
:1039E80084F85D30236E7BB92046FFF7B5FF38BDFC
:1039F80020232366F0E76168B1F5827FE3D1596837
:103A080021F003015960E2E72046FFF7B7FF38BD10
:103A180038B50546846AFEF72DF92B681B689B06A6
:103A28001CD421684B6823F0200302464B602046D3
:103A38006421FFF717FE18B1236E43F020032366B5
:103A480021684B68002223F0030301204B60E287C2
:103A5800A4F8462084F85D00236E1BB92046FCF7C5
:103A680091FF38BD2046FFF789FF38BD30B50268A1
:103A78005168936813F0400F85B00446C3F380156E
:103A880005D113F0010F02D011F0400F7AD1980739
:103A980001D5080670D413F0200FC3F3401049D0A5
:103AA800880645D575B194F85D0003286CD0206E62
:103AB800002540F0040020660095D06800909068CA
:103AC80000900098206E002540F0010020660295C5
:103AD80090680290106820F0400010600298C3F3CC
:103AE8000023002B3ED1236E13B3536823F0E00369
:103AF800536001208B0784F85D004DD05368A06D9A
:103B080023F00303536040B1254B8363FEF772FA39
:103B180018B1236E43F040032366606D40B1204B1B
:103B28008363FEF767FA18B1236E43F040032366F8
:103B380005B030BD95B18D06FAD594F85D50032DCA
:103B480022D0256E45F0040525660090D0680090C7
:103B5800906800900098C3F30023C2E7DD05E7D51D
:103B68008B06E5D5236E002043F0080323660390F7
:103B780093680393039BB6E7236D204605B0BDE821
:103B880030401847C36CF9E700230193D3680193C9
:103B980093680193019BCBE72046FFF7EFFEC7E749
:103BA800AD3B000808B5806A0023A0F84630C387FB
:103BB800FFF7E4FE08BD00BF026852E8003F23F4A7
:103BC800907342E800310029F7D102F1080353E865
:103BD800003F23F0010302F1080C4CE800310029F2
:103BE800F3D1036E012B05D000232022C267436660
:103BF8000366704752E8003F23F0100342E80031A3
:103C08000029F1D052E8003F23F0100342E80031C8
:103C18000029EFD1E8E700BFB8B138B5242203681E
:103C280082671A680025044622F001021A601D60A6
:103C38005D609D60FDF790F984F87450C4F8805079
:103C48002846A567E567256638BD0120704700BF8F
:103C58002DE9F041866F202E41D100293CD0002A61
:103C68003AD0044690F87400012838D0E06EA4F8E1
:103C78005220002701252123C4F88070E164A4F8AC
:103C8800502084F87450A36790B1DFF86CC0D4F862
:103C98000080DFF868E0C0F82CC0DFF864C08763F4
:103CA8001346C0E90CEC08F12802FEF737F9C8B949
:103CB800226840210023116284F8743002F108035D
:103CC80053E8003F43F0800302F1080141E8003067
:103CD8000028F3D1BDE8F0810120BDE8F081022081
:103CE800BDE8F081102384F87470C4F88030284649
:103CF800A667BDE8F08100BF2D3E0008753E0008AC
:103D0800893E0008026810B5044652E8003F23F0D7
:103D1800C00342E800310029F7D193681B0605D497
:103D280000202023A4F85200A36710BD02F1080365
:103D380053E8003F23F0800302F1080040E8003117
:103D48000029F3D1E06E0028EAD08163FEF72CF950
:103D58000028E5D0E06EFEF7C1F92028E0D1102355
:103D6800C4F88030032010BD38B50368044653E812
:103D7800002F22F4907243E800210029F7D103F1C3
:103D8800080252E8002F22F0010203F1080040E87F
:103D980000210029F3D1226E012A26D0996849060C
:103DA8001A460ED400210F23A4F85A101362138B5D
:103DB8009BB243F00803202513830846E567216674
:103DC80038BD03F1080252E8002F22F0400203F147
:103DD800080040E800210029F3D1206FB0B18163C9
:103DE800FEF7E2F8A0B92268DCE753E8002F22F0DA
:103DF800100243E800210029D0D053E8002F22F018
:103E0800100243E800210029EFD1C7E71A46C9E7A5
:103E1800206FFEF763F92028E5D11023C4F880301D
:103E2800032038BD08B50368806A1B6813F02003B7
:103E380017D10268A0F8523002F1080353E8003F96
:103E480023F0800302F1080040E800310029F3D193
:103E580052E8003F43F0400342E800310029F7D11F
:103E680008BDFCF765FC08BD704700BF08B5806A4F
:103E7800FFF7FAFF08BD00BF704700BF704700BFDB
:103E8800806A0268816F10B5C46F93681B0601D5FC
:103E980021290DD093685B0601D5222C16D0D0F8C5
:103EA800803043F01003C0F88030FCF70BFC10BDE5
:103EB8000023A0F8523052E8003F23F0C00342E844
:103EC80000310029F7D120238367E3E70023A0F816
:103ED8005A30FFF771FEE2E708B5806A0023A0F8C0
:103EE8005A30A0F85230FCF7EDFB08BD704700BF10
:103EF8000368DA6919682DE9F04140F60F052A428E
:103F08009E6804464ED1970602D58D0600F1C580FD
:103F1800206E012824D0D00202D5770200F1C28099
:103F2800160614D4500601D54A0601D4BDE8F0811E
:103F380053E8002F22F0400243E800210029F7D17E
:103F48002023A166A3672046FCF7F2FBEEE70D06E7
:103F5800E8D5A36E002BE9D02046BDE8F04118470C
:103F6800D506D8D5C806D6D510221A629A6857063B
:103F780040F1AB80206F01684A6892B2002AD5D020
:103F8800B4F858509542D1D9A4F85A200A68960630
:103F980040F1CF80B4F85A10691A89B22046FFF769
:103FA800A5FFC3E77D4806F0010508402843AFD0C8
:103FB800D0071F4609D5CE0507D501201862D4F8C9
:103FC800800040F00100C4F88000900758D54DB13A
:103FD80002201862D4F88000560740F00400C4F8A4
:103FE800800051D416070BD501F02000284307D0D4
:103FF80008201862D4F8800040F00800C4F8800057
:1040080015050AD5480108D54FF400601862D4F8A0
:10401800803043F02003C4F88030D4F88030002B7F
:1040280084D0920601D58B0648D4D4F88050BB685A
:1040380005F0280503F040031D43204600F0A98041
:10404800FFF7BAFD23689A68560633D503F10802CC
:1040580052E8002F22F0400203F1080040E8002156
:104068000029F3D1206F28B34D4B8363FDF7C2FFBE
:1040780000283FF45BAF206FBDE8F041836B184721
:104088005007AFD5002DADD004201862D4F88000B9
:1040980040F00200C4F88000A4E7436E002B7FF4D0
:1040A8005CAF43E74FF4801220461A62BDE8F04146
:1040B80000F07EBC2046FCF705FB37E7636E002B5B
:1040C800B3D0204698472768AFE7B4F85A10B4F839
:1040D8005A2092B289B2002A3FF428AFB4F8582087
:1040E800511A89B200293FF421AF53E8002F22F476
:1040F800907243E800200028F7D103F1080252E843
:10410800002F22F0010203F1080545E800200028ED
:10411800F3D12022E2676066206653E8002F22F080
:10412800100243E800200028F7D12046FFF7DEFE02
:10413800FCE653E8002F22F4807243E800210029AE
:10414800F7D103F1080252E8002F22F0010203F12F
:10415800080545E800210029F3D103F1080252E8D7
:10416800002F22F0400203F1080545E8002100294C
:10417800F3D12022E267216653E8002F22F01002D3
:1041880043E800210029F7D1FDF70EFFB4F8585095
:1041980000E7FCF797FAC4F88050C7E6200100044E
:1041A800E13E0008806A08B5036E012B02D0FFF7D4
:1041B80065FE08BDB0F858104908FFF797FE08BD1E
:1041C80008B50368806A1A6812F0200227D10368CC
:1041D800A0F85A2053E8002F22F4807243E8002107
:1041E8000029F7D103F1080252E8002F22F001025A
:1041F80003F1080C4CE800210029F3D103F108026F
:1042080052E8002F22F0400203F1080C4CE800218C
:104218000029F3D12022C267026E012A05D0036E5D
:10422800012B13D0FFF728FE08BD53E8002F22F01A
:10423800100243E800210029F1D053E8002F22F0B2
:10424800100243E800210029EFD1E8E7B0F8581040
:10425800FFF74CFE08BD00BF044B02689A4204D029
:10426800536903F07F431943516170470080004050
:104278000F4902688A4218D0816F2029034612D15B
:1042880090F8740001280ED0242010B49867506864
:10429800002440F40000506083F874402046996779
:1042A8005DF8044B7047022070470120704700BF3B
:1042B80000800040F8B50446A54823682569A2682F
:1042C8006669E1692A431D68324328400A4302436C
:1042D8001A605A68E6689F48A56922F4405232433A
:1042E80083425A6000F0B2809868226A9A4E20F49D
:1042F80030602A430243B3429A6023D0974A9342DC
:1043080035D0974A934200F00181964A934200F0D3
:10431800D880954A934210D1944BD3F8883003F44F
:104328004073B3F5007F5CD000F2EB80002B00F007
:10433800DA80B3F5807F00F0D0800023C4E9193318
:104348000120F8BD894BD3F8883003F00303013B03
:10435800022B40F2CE80B1F5004F00F0F380FEF75B
:10436800E1FC60BB0023C4E919330020F8BD7F4B92
:104378007F4AD3F8883003F00C03D35CB1F5004FC3
:1043880034D0082BD9D801A252F823F0F5440008FC
:1043980067430008F143000843430008E944000864
:1043A800434300084343000843430008C34300084D
:1043B800302BC2D1B1F5004F30D04FF400406368C4
:1043C8004FF6EF7200EB5300B0FBF3F3A3F11001CB
:1043D8009142B2D82268D3600023C4E9193300207F
:1043E800F8BDB1F5004F2FD06248E8E7082BA4D8F4
:1043F80001A252F823F000BF3F4500084D450008D0
:10440800514400084343000853450008434300084B
:104418004343000843430008254400084FF4803311
:1044280062684FF6EF7103EB5203B3FBF2F3A3F1AB
:1044380010028A4281D823F00F02216892B2C3F396
:1044480042031343CB608DE74B4BE9E79A68474932
:1044580022F430622A439A60D1F8883003F440632A
:10446800B3F5006F65D009D8002B45D0B3F5806F40
:104478007FF463AFFEF74AF830B973E7B3F5406FDE
:104488007FF45BAF4FF40040626802EB4203834263
:104498003FF653AFB0EB023F3FF64FAF56084FF42D
:1044A80080730027E3FB0067304600233946FBF79B
:1044B800F9FE324AA0F54071914203463FF63DAFFE
:1044C80088E72A4BD3F8883003F0C003802B88D0C4
:1044D8002BD843B1402B7FF430AFB1F5004F34D027
:1044E800FEF714F83DE7B1F5004F24D0FEF708FCBD
:1044F80037E7234AD35C41E7FEF702FC0028C3D123
:1045080030E7B3F5407F3FF455AF16E7174BD3F8C4
:10451800883003F03003202B3FF463AF3FF648AFF9
:10452800002BE0D0102BD8D007E7C02B3FF442AFC8
:1045380003E71048A8E7FEF7E3FB00283FF412AFB3
:1045480043006DE7FEF7EEFBF7E7FDF7DFFFF4E763
:10455800F369FFEF0080004000380140004400404C
:1045680000480040004C004000500040001002404D
:10457800D8B501080024F4000048E801FFFC0F004A
:10458800D4B50108436ADA0710B406D50168846A0D
:104598004A6822F4003222434A609C0706D5016823
:1045A800C46A4A6822F4803222434A60590706D511
:1045B8000168046B4A6822F4802222434A601A0781
:1045C80006D50168446B4A6822F4004222434A60D7
:1045D800DC0606D50168846B8A6822F4805222437F
:1045E8008A60990606D50168C46B8A6822F400526D
:1045F80022438A605A0609D50168046C4A6822F485
:1046080080122243B4F5801F4A600BD01B0606D5E2
:104618000268816C536823F400230B4353605DF8F0
:10462800044B70474A68446C22F4C00222434A6033
:10463800ECE700BF2DE9F047DDF8208005688146EA
:104648000F4616469A4602E0B8F1FF3F0AD1EC69D8
:1046580037EA04030CBF01240024B442F4D000203C
:10466800BDE8F087FDF706FBA0EB0A0040452DD812
:10467800B8F1000F2AD0D9F800502B6859072A46FC
:10468800E5D5EB691B05E2D54FF400632B6252E8D0
:10469800003F23F4D07342E800310029F7D102F13A
:1046A800080353E8003F23F0010302F1080040E843
:1046B80000310029F3D12023C9F8783089F8741023
:1046C800C9F87C300320C9F88030C9E7D9F8002040
:1046D80052E8003F23F4D07342E800310029F7D1B3
:1046E80002F1080353E8003F23F0010302F1080038
:1046F80040E800310029F3D12023C9F8783089F83F
:1047080074100320C9F87C30AAE700BF2DE9F043F4
:104718000446806F202883B049D10D46002942D035
:104728001746002A3FD01E4694F87430012B3ED01D
:10473800012221234FF00009C4F8809084F87420E6
:10474800A367FDF797FAA268A4F85070B2F5805FE6
:104758008046A4F852702ED0B4F8523000229BB292
:1047680084F8742073B930E0236815F8012B1A8592
:10477800B4F85220013A92B2A4F85220B4F8522068
:1047880092B212B300964346002280212046FFF7DA
:1047980051FFB0B9002DE7D139F8023B2268C3F3C5
:1047A80008031385E4E7012003B0BDE8F083022085
:1047B80003B0BDE8F0832369002BCDD1A9461D467F
:1047C800CAE7032003B0BDE8F08300964346002201
:1047D80040212046FFF72EFF0028F2D12023A367AF
:1047E800E2E700BF70B50446002682B0C0F88060DA
:1047F800FDF740FA23681A68120705460CD41B68AF
:104808005B0718D4002320221846A26784F8743066
:10481800E267236602B070BD6FF07E4300933246B4
:1048280003464FF400112046FFF704FF78B92368C8
:104838001B685B07E6D56FF07E4200922B4600228C
:104848004FF480012046FFF7F5FE0028DAD0032058
:1048580002B070BD70B3836F10B504462BB32268E5
:104868002423A367136823F0010313602046FFF78E
:1048780021FD012817D0636A8BB923685A6822F48E
:1048880090425A609A6822F02A029A601A6842F0A6
:10489800010220461A60BDE81040FFF7A3BF20467A
:1048A800FFF770FEE9E7012010BD80F87430FCF7CF
:1048B80097FAD4E701207047F8B50446006F6165A0
:1048C80000252223C4F88050A4F85820E36778B163
:1048D800204ED4F800C0204FC662204E8563134690
:1048E800C0E90C760A460CF12401FDF717FB40BB22
:1048F8002369002284F874204BB1236853E8002F01
:1049080042F4807243E800210029F7D100E02368CF
:1049180003F1080252E8002F42F0010203F10800F7
:1049280040E800210029F3D103F1080252E8002FE2
:1049380042F0400203F1080141E800200028F3D1C9
:10494800F8BD1022202384F87450C4F88020012078
:10495800E367F8BDC9410008AD410008893E000879
:10496800C36F202B20D1E9B1E2B190F87430012B4C
:104978001AD030B40D4B0468012580F874509C425D
:104988004FF0000505660AD063681B0207D554E896
:10499800003F43F0806344E80035002DF7D130BC78
:1049A800FFF78ABF0120704702207047008000404F
:1049B800704700BF10B5044603F02AF8FBF7ECFF78
:1049C80003F050FE08B9012010BD00F0EBF90028F3
:1049D800F9D0204602F0AAFA0028F4D003F000F932
:1049E80003F03AFE012807D9044B054A5B6B0549D9
:1049F80002209847002010BD002010BD2C0C00207C
:104A0800E8B50108FCB5010800680B68C01AB0FADF
:104A180080F04009704700BF074B1A79022A00D07E
:104A2800704700B587B0186969460423009303F0FE
:104A380055F807B05DF804FB3802002030B50A4C81
:104A480083B0636A617FE26C019300910346D56A83
:104A58002168A26AE068A847637F13B180F001006B
:104A6800C3B2637703B030BD38020020F8B558B13F
:104A780003680546042B00F27381DFE813F05E003B
:104A88008C00BD002400E4009E4C237F6BB1E36CD6
:104A98001B79002B2CD1637F002B40F0E180637FD2
:104AA8001BB16369002B40F0F480974C03F0D4FDF0
:104AB800032806D9954B964A5D6B964923460420F0
:104AC800A8472046F8BD03F0C7FD032805D98F4B3A
:104AD800914A5B6B8F49042098478A4C237F002BAF
:104AE800E3D0E36C1B7901226277002B00F0B880D9
:104AF800A67F002E00F0BB806369002B00F0D180F8
:104B0800FBF760FFA3691A1A002A00F3B380002795
:104B1800D4F814C0394603E02B4601312A1A374627
:104B2800002A0CEB0305F7DD07B1A361012994BF47
:104B380000200120FFF782FF9CE003F08DFD032891
:104B480005D9724B754A5B6B7249042098476D4CC6
:104B58002379002B40F0D280E36C9868002840F05D
:104B6800E7801B6AA0689847002840F0A480E36C9F
:104B7800A0685B6998470646E060002800F0E1807D
:104B8800E36C2168DB6998470120266820716B680F
:104B98003146984779E703F05FFD032805D95B4B59
:104BA8005F4A5B6B5B4904209847564C2379012B7D
:104BB80005D1E36CE0685B6A9847002878D100204B
:104BC8006B6820779847D5E9022362624BB1E26CA3
:104BD8005449D288012A38BF012203FB02F3B1FBF2
:104BE800F3F36361FBF7EEFE636929692A7DA27717
:104BF80018442162A06148E703F02EFD032805D977
:104C0800424B494A5B6B4349042098473D4C237902
:104C1800022B4AD1E36CE0689B6A98470123237111
:104C2800E36CE0689B6998472068FBF7C3FE0026A1
:104C3800A06A2660FBF7BEFEA66226716B689847DD
:104C48000023A38331E703F007FD03287FF61CAF99
:104C58002E4B364A5B6B2F492A4C0420984714E7A1
:104C68006369002B34D1236A33F0040319D0FBF7AE
:104C7800B1FEB0B9237F002B3FF417AFE36C1B796B
:104C8800002B3FF40CAFA37F002B3FF40EAF6369FA
:104C98002BB1FBF797FEA469241A7FF507AF002410
:104CA80004E70020FFF7CAFEE4E7012BC6D1B7E707
:104CB8000223237184E7FBF77BFE0646A0620028E7
:104CC8007FF455AF2068FBF775FE266030465EE737
:104CD800FBF778FEA3691A1A002ACBDC002667695D
:104CE800314603E02B4601312A1A0126002A07EB38
:104CF8000305F7DD002E7FF418AF17E726680020BC
:104D080045E700BF3802002080C3C9012C0C0020F1
:104D180084B601081CB601084CB601080CB6010897
:104D280028B6010840420F0038B601085CB60108F1
:104D3800FBF73EFE0646206000283FF428AFE36CF0
:104D48000FE7A06AFBF736FE2068A662FBF732FE83
:104D580020792660A0F10100B0FA80F0400916E73A
:104D68000349044A4D6B0449044C0020A8478CE6CB
:104D78002C0C002070B601081CB60108380200206F
:104D880010B5074C206918B102F090FE002323618A
:104D9800A06820B1E36C1B6998470023A36010BD8D
:104DA8003802002038B50F4CE26AE2640023032180
:104DB800D2682162E36023719047182305460A49A7
:104DC8000A48A5600A2202F035FEA36820612BB1CB
:104DD80020B10748FBF7F8FD012038BDFFF7D0FFE9
:104DE800002038BD38020020114A0008754A000822
:104DF800214A000838B50F4D2B7953B905F12C031A
:104E080005F14C0153F8044B2268824203D08B42CF
:104E1800F8D1002038BDA86820B1EB6C1B69984711
:104E28000023AB60E368EC649847A860003818BFBB
:104E3800012038BD38020020014B9868704700BF38
:104E480038020020014BDB6C1868704738020020DC
:104E580000B5064987B002460023086901926946F1
:104E6800009302F03BFE07B05DF804FB3802002017
:104E780070B586B0084E0A9C029404460D46039409
:104E88003069049501246946CDE900438DF8142062
:104E980002F024FE06B070BD3802002000B50649B5
:104EA80087B002460223086901926946009302F01E
:104EB80015FE07B05DF804FB3802002000B5054A6E
:104EC80087B0032310690093694602F007FE07B014
:104ED8005DF804FB38020020094A002352F8041B3D
:104EE80041B10133082BF9D1064B074A5B6B0749DF
:104EF80000201847064A02EB8303D862704700BFB8
:104F0800640200202C0C002094B601081CB601088D
:104F1800380200202020704711F0BEB811F0B0B858
:104F280011F092B800B583B0019001A811F07CF897
:104F380003B05DF804FB00BF11F02CB800B583B0D6
:104F4800019001A811F002F803B05DF804FB00BF5E
:104F580010F0A6BF38B592ED000A14460546812127
:104F680002F0A2FB94ED010A28468221BDE83840F0
:104F780002F09ABB70B50E460C46A12106F8011B3B
:104F8800054602F073FB314602F04AFEA02161712A
:104F9800284602F06BFBA11D02F042FEB021A1726F
:104FA800284602F063FB04F10B0102F039FEA3214D
:104FB800E173284602F05AFB04F1100102F030FEBA
:104FC800A4212175284602F051FB04F1150102F0D5
:104FD80027FE192070BD00BFF8B51F4606461546C6
:104FE8000C461A78A12102F05BFBBA783046A02162
:104FF80002F056FBFA783046A32102F051FB7A788A
:105008003046A42102F04CFB2A463046B02102F07B
:1050180047FB1DB905EB45056800F8BD94ED010A8D
:10502800B121304602F040FB2288B221304602F01E
:1050380037FB012D24D994ED030AB321304602F041
:1050480033FB2289B421304602F02AFB022D17D007
:1050580094ED050AB521304602F026FB228AB621D6
:10506800304602F01DFB032D0AD0B721304694EDDF
:10507800070A02F019FB228B3046B82102F010FB18
:105088006A1E92B2013204EBC202234619882180BB
:105098005968C4F802100833934204F10604F5D1A4
:1050A80005EB45056800F8BD2DE9F04F2DED048BA3
:1050B8000C4683B02021054602F0DCFA284621215F
:1050C800B0EE409A02F0D6FA28462521F0EE408A42
:1050D80002F0CCFA292103462846019302F0C6FAC9
:1050E80028218346284602F0C1FA24218246284610
:1050F80002F0C0FA28463021B0EE408A02F0B6FA33
:1051080033218146284602F0B1FA342180462846E8
:1051180002F0ACFA32210746284602F0A7FAB0EEB0
:10512800490A0646204610F0E1FFB0EE680A20461C
:1051380011F010F8019B2046194611F03DF81FFAAE
:105148008BF1204611F06AF85FFA8AF1204611F0D7
:1051580097F8B0EE480A204611F0F8F85FFA89F19E
:10516800204611F025F9B8F1000118BF01212046A9
:1051780011F050F9F9B2204611F016FB311E18BF94
:105188000121204611F0AEF82846402102F06EFABF
:1051980041218146284602F069FA42218046284684
:1051A80002F064FA44210746284602F063FA2846CA
:1051B8004521B0EE409A02F05DFA28464621F0EE0D
:1051C800408A02F057FA28464721B0EE408A02F09A
:1051D8004DFA48210646284602F048FA1FFA89F196
:1051E8000546204611F044F95FFA88F1204611F08F
:1051F80083F9B9B2204611F0B3F9B0EE490A204656
:1052080011F0E0F9B0EE680A204611F00DFAB0EEA0
:10521800480A204611F03AFA311E18BF01212046EB
:1052280011F064FA2046E9B211F094FA002003B0B4
:10523800BDEC048BBDE8F08F2DE9F04F2DED048B0C
:1052480083B004460D4603F007FA012805D95E4BE2
:105258005E4A5B6B5E4902209847284610F028FF9B
:105268002846B0EE409A10F057FF2846F0EE408AE4
:1052780010F086FF02462846019210F0B3FF8346DD
:10528800284610F0E1FF8246284611F041F82846EA
:10529800B0EE408A11F070F88146284611F09EF869
:1052A8008046284611F096FA0746284610F0FEFF79
:1052B800B0EE490A06462021204602F0F5F9B0EE84
:1052C800680A2046212102F0EFF9019A204625219B
:1052D80002F0E6F95A462046292102F0E1F9524641
:1052E8002046282102F0DCF9B0EE480A20462421A5
:1052F80002F0DAF94A462046302102F0D1F9424656
:105308002046332102F0CCF93A462046342102F0F7
:10531800C7F932213246204602F0C2F9284611F078
:105328008FF802462846019211F0C8F880462846B0
:1053380011F0FEF80746284611F028F92846B0EE85
:10534800409A11F055F92846F0EE408A11F082F99A
:105358002846B0EE408A11F0AFF90646284611F00B
:10536800DBF9019A05464021204602F099F94246A8
:105378002046412102F094F93A462046422102F0A3
:105388008FF9B0EE490A2046442102F08DF9B0EEBB
:10539800680A2046452102F087F9B0EE480A2046FF
:1053A800462102F081F932462046472102F078F979
:1053B80020462A46482102F073F9002003B0BDECCC
:1053C800048BBDE8F08F00BF2C0C0020B0B601089C
:1053D800C8B6010830B587B09DF82850A5B1114668
:1053E8001C46042203AB019111F078FA9DF80C5089
:1053F800BDF8102001992C438DF80C4003AB0B9C91
:10540800A047012007B030BD024840F2251104F042
:1054180017FE00BFC8B6010808B5044801F068FDCA
:10542800BDE808400248FFF757BD00BF0CB70108A8
:10543800DCB601080020704703F0B0BA03F06CBA7C
:1054480003F066BE00B583B0019001A804F0B8F976
:1054580003B05DF804FB00BF04F03EB900B583B0AB
:10546800019001A803F0B0FD03B05DF804FB00BF94
:1054780003F01CBD38B592ED000A1446054681219B
:1054880002F012F994ED010A2846822102F00CF983
:1054980022892846832102F003F92846628984215B
:1054A80002F0FEF894ED030ADFED047A284620EEB8
:1054B800270ABDE83840852102F0F6B800007A4492
:1054C80070B51C4605461646A0219A7802F0E8F801
:1054D80022782846A12102F0E3F8E2782846A321A1
:1054E80002F0DEF828466278A42102F0D9F87000AC
:1054F80070BD00BF70B50E460C46A12106F8011B11
:10550800054602F0B3F8314602F08AFBA02161712A
:10551800284602F0ABF8A11D02F082FBA321A1727C
:10552800284602F0A3F804F10B0102F079FBA4214C
:10553800E173284602F09AF804F1100102F070FBBA
:10554800142070BD38B50C462821054602F08EF8A7
:10555800C1B2204603F01AFB2846402102F08AF81F
:10556800204603F079FD2846312102F07FF8011E1C
:1055780018BF0121204603F0BBFD2846322102F066
:1055880075F8011E18BF0121204603F039FB20469B
:10559800BDE8384003F0A4B8F0B583B005460C4622
:1055A80003F05AF8012805D9194B1A4A5B6B1A49B6
:1055B80002209847204603F0D1FA0246204601927D
:1055C80003F02EFD20468DED000A03F083FD07460B
:1055D800204603F0FDFA019A06462821284602F0E3
:1055E8005FF89DED000A2846402102F05DF83A4632
:1055F8002846312102F054F828463246322102F07A
:105608004FF8204603B0BDE8F04003F069B800BF8A
:105618002C0C002024B7010834B7010870B582B0FB
:105628009DF81820AAB10D466A4601A91C46002318
:10563800CDE9003303F08EFD9DF800602A890199B9
:1056480034438DF800406B46079CA047012002B008
:1056580070BD0248B22104F0F3FC00BF34B7010862
:1056680008B5044801F044FCBDE808400248FFF7CB
:1056780033BC00BF78B7010848B70108002070475D
:1056880003F08CB903F048B903F078BF00B583B0D4
:10569800019001A804F094F803B05DF804FB00BF82
:1056A80004F01AB800B583B0019001A803F0E0FE39
:1056B80003B05DF804FB00BF03F04CBE38B592EDB3
:1056C800000A2DED028B14460546812101F0ECFFFE
:1056D80094ED010A9FED118A2846822101F0E4FF2A
:1056E80022892846832101F0DBFF6289284684212C
:1056F80001F0D6FF94ED030A284620EE080A85211A
:1057080001F0D2FF94ED040A20EE080ABDEC028BEA
:1057180028468621BDE8384001F0C6BF00007A441B
:1057280070B51C4605461646A0219A7801F0B8FFC8
:1057380022782846A12101F0B3FFE2782846A32168
:1057480001F0AEFF28466278A42101F0A9FFB0005D
:1057580070BD00BF70B50E460C46A12106F8011BAE
:10576800054601F083FF314602F05AFAA021617123
:10577800284601F07BFFA11D02F052FAA321A17275
:10578800284601F073FF04F10B0102F049FAA42145
:10579800E173284601F06AFF04F1100102F040FAB3
:1057A800142070BD38B50C462821054601F05EFF6F
:1057B800C1B2204603F0EAF92846292101F056FF34
:1057C80081B2204603F080FE2846312101F04EFFC9
:1057D800011E18BF0121204603F094FE28463221FD
:1057E80001F044FF011E18BF0121204603F008FA0A
:1057F8002846412101F03AFF4221034628461D462A
:1058080001F038FFDFED097A291E18BF0121204673
:1058180020EE270A03F048FE2046012103F082FE0D
:105828002046BDE8384002F05BBF00BF6F12833AE4
:105838002DE9F04182B005460C4602F00DFF012823
:1058480005D9204B204A5B6B204902209847204607
:1058580003F084F98046204603F046FE07462046BA
:1058680003F0B6F901AA06460DF10301204603F03C
:105878000BFE42462846282101F012FF3A462846E8
:10588800312101F00DFF32462846322101F008FF90
:105898009DF803202846412101F002FF9FED0C7A74
:1058A800DDED017A67EE877A2846FCEEE77A422139
:1058B80017EE902A01F0F4FE204602F011FF02B024
:1058C800BDE8F0812C0C002090B7010898B70108BA
:1058D80000007A4470B582B09DF8182092B10D4648
:1058E8006A4601A91C4603F06FFE9DF800602A89EC
:1058F800019934438DF800406B46079CA04701206E
:1059080002B070BD0148BE2104F09AFB98B70108A7
:1059180008B5044801F0ECFABDE808400248FFF772
:10592800DBBA00BFD4B70108A4B70108704700BFAD
:1059380070B584B000239DF820608DF80830002EE3
:1059480008BF002202AC0546039208BF1C4603E0CC
:105958009DF8043073B956B16A462146284611F0BD
:10596800CDFA0028F4D116B19DF8043073B901209E
:1059780004B070BD002EFAD030469DF80820039977
:10598800099C6B46A047012004B070BD0646F3E7AA
:1059980011F032BA08B511F07BFD00EB4000800031
:1059A80008BD00BF00B583B0019001A811F002FB4B
:1059B80003B05DF804FB00BF11F024BB00B583B051
:1059C800019001A811F07EFD03B05DF804FB00BF53
:1059D80011F01CBC10B52DED028B044682B00846B0
:1059E80012F00CFD20468121B0EE408A01F05CFEE9
:1059F80002F032FE012833D9B5EEC08AF1EE10FA72
:105A08009FED190A194BDFED186A5C6B4CBF184BF8
:105A1800184B9FED197A194948BFB1EE488A38EEFC
:105A2800000A0220FCEEC07AB5EEC00AF1EE10FAC8
:105A380017EE902A4CBFF1EE407AF0EE407A77EEFE
:105A4800A67A0092FCEEE77A0D4AF8EE677A30EE15
:105A5800670A20EE070ABCEEC00A8DED010AA047CE
:105A680002B0BDEC028B10BDBD3706352C0C0020F2
:105A7800ECB7010868DB01080024744930B8010854
:105A8800F0B7010838B5A1230C46054601F8013BDB
:105A9800002002F0C5F8B0216171284601F0E6FD4A
:105AA800A11D02F0BDF8A321A172284601F0DEFD78
:105AB80004F10B0102F0B4F8A421E173284601F0C7
:105AC800D5FD04F1100102F0ABF8142038BD00BF79
